:100000000C945D000C9485000C9485000C94850084
:100010000C9485000C9485000C9485000C9485004C
:100020000C9485000C9485000C9485000C9485003C
:100030000C9485000C9485000C9485000C9485002C
:100040000C9438050C9485000C94A8050C9482053A
:100050000C9485000C9485000C9485000C9485000C
:100060000C9419040C9485000000000800020100A3
:100070000003040700000000000000000000000072
:10008000250028002B0000000000240027002A0083
:10009000040404040404040402020202020203032E
:1000A0000303030301020408102040800102040836
:1000B0001020010204081020DA0511241FBECFEF22
:1000C000D8E0DEBFCDBF11E0A0E0B1E0E4EFFFE09B
:1000D00002C005900D92A033B107D9F722E0A0E34A
:1000E000B1E001C01D92A43AB207E1F710E0CDE5FE
:1000F000D0E004C02197FE010E94F207CC35D10761
:10010000C9F70E9422060C94F8070C94000090E0B6
:10011000FC01EC55FF4F249180579F4FFC018491C7
:10012000882399F090E0880F991FFC01EA57FF4F50
:10013000A591B491FC01E458FF4F859194918FB73C
:10014000F894EC91E22BEC938FBF089585ED8093AA
:10015000BC008091BC0084FDFCCF1092C9010895C1
:100160002091A301260F3327331F21323105ECF4F0
:100170002091C901FC0190E080E0243069F082E028
:100180000895A091A3012191AC014F575E4FA40F98
:10019000B52FB11D2C930196861798F38091A3017A
:1001A000680F6093A30180E0089581E008950895A9
:1001B00008950895E0917E0180917D01E81730F463
:1001C000F0E0E35AFE4F808190E008958FEF9FEFBB
:1001D000089590917E0180917D012FEF3FEF981758
:1001E00048F4E92FF0E0E35AFE4F208130E09F5FB2
:1001F00090937E01C901089580917D0190917E01C7
:10020000891B990B0895CF92DF92EF92FF920F9383
:100210001F93CF93DF937C01CB018A0120915C0176
:10022000222389F0EB016B01C40ED51ECC15DD0530
:1002300069F06991D701ED91FC910190F081E02D79
:10024000C7010995F3CF642F0E94B000C801DF9168
:10025000CF911F910F91FF90EF90DF90CF90089575
:10026000CF93DF931F92CDB7DEB7698320915C01F6
:100270002223F9F020917F01203258F021E030E074
:10028000FC013383228390E080E00F90DF91CF91D7
:10029000089580918001E82FF0E0E45CFE4F9981A1
:1002A00090838F5F8093800180937F0181E090E055
:1002B000ECCF61E0CE0101960E94B000F7CF90E054
:1002C000FC01E859FF4F2491FC01EC55FF4F34919C
:1002D000FC01E057FF4FE491EE23C9F0222339F0EF
:1002E000233001F1A8F4213019F1223029F1F0E096
:1002F000EE0FFF1FE458FF4FA591B4918FB7F8940C
:10030000EC91611126C030953E233C938FBF089538
:100310002730A9F02830C9F0243049F780918000B7
:100320008F7D03C0809180008F7780938000DFCF26
:1003300084B58F7784BDDBCF84B58F7DFBCF809173
:10034000B0008F778093B000D2CF8091B0008F7DC6
:10035000F9CF3E2BDACF3FB7F894809138019091D6
:100360003901A0913A01B0913B0126B5A89B05C087
:100370002F3F19F00196A11DB11D3FBFBA2FA92F24
:10038000982F8827BC01CD01620F711D811D911D21
:1003900042E0660F771F881F991F4A95D1F708958D
:1003A0008F929F92AF92BF92CF92DF92EF92FF9285
:1003B0004B015C010E94AB016B017C010E94AB010F
:1003C0006C197D098E099F09683E7340810591056E
:1003D000A8F321E0821A9108A108B10888EEC80E9E
:1003E00083E0D81EE11CF11C81149104A104B10426
:1003F00029F7FF90EF90DF90CF90BF90AF909F9044
:100400008F900895AF92BF92CF92DF92EF92FF92BA
:100410000F931F93CF93DF936C017B018B01040F2C
:10042000151FEB015E01AE18BF08C017D10759F0C8
:100430006991D601ED91FC910190F081E02DC6010A
:100440000995892B79F7C501DF91CF911F910F9104
:10045000FF90EF90DF90CF90BF90AF900895FC0198
:10046000538D448D252F30E0842F90E0821B930B19
:10047000541710F0CF96089501970895FC01918DBF
:10048000828D981761F0A28DAE0FBF2FB11D5D96C2
:100490008C91928D9F5F9F73928F90E008958FEF64
:1004A0009FEF0895FC01918D828D981731F0828D18
:1004B000E80FF11D858D90E008958FEF9FEF08956F
:1004C000FC01918D228D892F90E0805C9F4F821BD3
:1004D00091098F73992708958BEF91E00E94600234
:1004E00021E0892B09F420E0822F089580E090E03C
:1004F000892B29F00E946C0281110C940000089550
:10050000FC01A48DA80FB92FB11DA35ABF4F2C9188
:10051000848D90E001968F739927848FA689B7897F
:100520002C93A089B1898C91837080648C93938D76
:10053000848D981306C00288F389E02D80818F7D19
:1005400080830895EF92FF920F931F93CF93DF93D1
:10055000EC0181E0888F9B8D8C8D98131AC0E889FF
:10056000F989808185FF15C09FB7F894EE89FF89CE
:100570006083E889F98980818370806480839FBF6C
:1005800081E090E0DF91CF911F910F91FF90EF906C
:100590000895F62E0B8D10E00F5F1F4F0F7311277C
:1005A000E02E8C8D8E110CC00FB607FCFACFE889B7
:1005B000F989808185FFF5CFCE010E948002F1CFBD
:1005C000EB8DEC0FFD2FF11DE35AFF4FF0829FB72B
:1005D000F8940B8FEA89FB8980818062CFCFCF931B
:1005E000DF93EC01888D8823B9F0AA89BB89E8895B
:1005F000F9898C9185FD03C0808186FD0DC00FB601
:1006000007FCF7CF8C9185FFF2CF808185FFEDCF7E
:10061000CE010E948002E9CFDF91CF910895CF9360
:10062000FC01C48121E020935C01C0933001109251
:10063000800110927F018385682B8FEE91E00E94EC
:10064000300190917F01913208F03FC08091C90143
:100650008111FCCF82E08093C90181E08093CB01BE
:100660008FEF8093C8011092ED019093EC01ACE301
:10067000B1E0ECECF1E080E098132FC01092EE01B5
:100680008091EE01CC0FC82BC093EE018091CA017E
:10069000813039F51092CA018091EE018093BB0040
:1006A0008091BC0083FDF8CF85EC8093BC008091E5
:1006B000C9018230E1F38091C8018F3F31F0809110
:1006C000C801803211F08091C8011092800110920F
:1006D0007F0110925C01CF9108952D9121938F5F3E
:1006E000CBCF85EEE2CF089590E080E008950F93A0
:1006F0001F93CF938C01C62F0E940F036C2F646051
:10070000C8010E940F036C2F6B7FC8010E940F036A
:1007100083EC90E00197F1F7CF911F910F9108952D
:100720000F931F93CF93DF938C01D62FC42F607F3D
:10073000642B0E94770380E1D89FB00111246C2BB9
:10074000C801DF91CF911F910F910C947703CF9344
:10075000DF93823028F090919D02986090939D02E3
:100760008093A00262E370E080E090E00E94D001FC
:100770006091A30288E992E00E940F0368EE73E0A3
:1007800080E090E00E94D00160E388E992E00E945E
:100790007703CBE4D6E4CE010197F1F760E388E973
:1007A00092E00E9477032197F1F760E388E992E0F5
:1007B0000E94770383E592E00197F1F760E288E910
:1007C00092E00E94770360919D02606240E088E9B8
:1007D00092E00E94900384E080939E0240E06CE0EF
:1007E00088E992E00E94900340E061E088E992E0AD
:1007F0000E949003CBE3DFE1CE010197F1F782E0A5
:1008000080939F0240E066E088E992E00E949003B6
:1008100040E062E088E992E00E9490032197F1F7BE
:10082000DF91CF91089541E00E94900381E090E034
:1008300008951F920F920FB60F9211242F933F939A
:100840004F935F936F937F938F939F93AF93BF93D8
:10085000EF93FF938091B900887F803609F44AC0F6
:10086000F0F5883209F4A7C018F5803109F49BC06F
:10087000B8F4882309F4F9C0883009F494C0FF91D2
:10088000EF91BF91AF919F918F917F916F915F9108
:100890004F913F912F910F900FBE0F901F90189581
:1008A000883109F488C0803251F78093C80114C0A0
:1008B000803409F49DC040F48033B9F38833F9F6ED
:1008C0008093C80185ECB0C0803509F485C08835B7
:1008D00009F496C0883499F60E94A600D0CF8839D2
:1008E00009F48CC038F5883729F050F4883611F0B7
:1008F000803729F683E08093C9011092C70157C061
:10090000883809F47BC0803919F0803809F0B7CFF6
:100910008091C701803208F071C0E091C70181E089
:100920008E0F8093C7018091BB00F0E0E955FE4F28
:1009300080833DC0803B39F0E0F4803A09F479C00F
:10094000883A09F09CCF84E08093C9011092A401F9
:100950001092A301E091A101F091A201099580916B
:10096000A30181110FC081E08093A3011092810146
:1009700009C0803C09F4A6CF883C09F4A3CF883B8A
:1009800009F07DCFE091A40181E08E0F8093A40156
:10099000F0E0EF57FE4F80818093BB009091A4015F
:1009A0008091A30129C08091EE018093BB0085EC6A
:1009B0008093BC0064CF9091ED018091EC01981779
:1009C00058F5E091ED0181E08E0F8093ED01F0E0AC
:1009D000E453FE4F8081E9CFE091ED0181E08E0F7D
:1009E0008093ED018091BB00F0E0E453FE4F8083E3
:1009F0009091ED018091EC019817C8F285E8D8CF6D
:100A0000E091ED0181E08E0F8093ED018091BB00BC
:100A1000F0E0E453FE4F80838091CB0181115CCFE5
:100A200081E08093CA0184EA8093BC001092C901DE
:100A300026CF85EC8093BC001092C9018091C7013C
:100A4000803230F4E091C701F0E0E955FE4F1082AA
:100A50006091C70170E0E091A501F091A60187EADD
:100A600091E009951092C7010ACF1092C80134CFC6
:100A70001F920F920FB60F9211242F933F938F93D3
:100A80009F93AF93BF938091340190913501A091D2
:100A90003601B09137013091330123E0230F2D3718
:100AA00058F50196A11DB11D2093330180933401A7
:100AB00090933501A0933601B093370180913801AE
:100AC00090913901A0913A01B0913B010196A11D8D
:100AD000B11D8093380190933901A0933A01B093EE
:100AE0003B01BF91AF919F918F913F912F910F90BB
:100AF0000FBE0F901F90189526E8230F0296A11D98
:100B0000B11DD2CF1F920F920FB60F9211242F93C7
:100B10003F934F935F936F937F938F939F93AF9385
:100B2000BF93EF93FF938BEF91E00E948002FF91C0
:100B3000EF91BF91AF919F918F917F916F915F9155
:100B40004F913F912F910F900FBE0F901F901895CE
:100B50001F920F920FB60F9211242F938F939F9392
:100B6000EF93FF93E0910B02F0910C028081E091F2
:100B70001102F091120282FD1BC09081809114023B
:100B80008F5F8F7320911502821741F0E09114025C
:100B9000F0E0E550FE4F958F80931402FF91EF91A6
:100BA0009F918F912F910F900FBE0F901F901895CE
:100BB0008081F4CFEFEEF1E01382128288EE93E0B1
:100BC000A0E0B0E084839583A683B78324E031E07E
:100BD00031832083EBEFF1E01382128284839583CB
:100BE000A683B78386E191E09183808385EC90E0D2
:100BF0009587848784EC90E09787868780EC90E0E7
:100C0000918B808B81EC90E0938B828B82EC90E0D7
:100C1000958B848B86EC90E0978B868B118E128E51
:100C2000138E148EE8E9F2E01382128288E291E0DA
:100C30009183808387E2848380E1818782E0828759
:100C400013860895CF93DF93CDB7DEB7A1970FB684
:100C5000F894DEBF0FBECDBF789484B5826084BDAA
:100C600084B5816084BD85B5826085BD85B58160B0
:100C700085BD80916E00816080936E00109281002E
:100C800080918100826080938100809181008160E9
:100C900080938100809180008160809380008091AA
:100CA000B10084608093B1008091B0008160809336
:100CB000B00080917A00846080937A0080917A00FD
:100CC000826080937A0080917A00816080937A00BC
:100CD00080917A00806880937A001092C10089E048
:100CE0000E94870082E00E94A70310927E0110926A
:100CF0007D011092800110927F011092C90181E064
:100D00008093CB011092CA0161E082E10E945F01F1
:100D100061E083E10E945F018091B9008E7F809342
:100D2000B9008091B9008D7F8093B90088E48093E9
:100D3000B80085E48093BC0087ED90E09093A20119
:100D40008093A10188ED90E09093A6018093A50186
:100D500010929D028091A2020E94A70318E01093B6
:100D6000A30260E088E992E00E940F031093A302BF
:100D700060E088E992E00E940F03E0910B02F0919D
:100D80000C0282E08083E0910702F0910802108259
:100D9000E0910902F0910A028FEC80831092130215
:100DA000E0910F02F091100286E08083E0910D0245
:100DB000F0910E02808180618083E0910D02F091BC
:100DC0000E02808188608083E0910D02F0910E0216
:100DD000808180688083E0910D02F0910E02808115
:100DE0008F7D808392E4792E21E7C22E20E0D22EDF
:100DF0003AE0832E912CA12CB12C40E0E42E40E06F
:100E0000F42E70927C0080917A00806480937A0046
:100E100080917A0086FDFCCF809178000091790066
:100E2000102F082F17FF02C00D5F1F4F1595079554
:100E300015950795109332010093310189E00E94C6
:100E400087000115110509F04FC060E089E00E949C
:100E50005F012090310130903201032C000C4408D6
:100E6000550857FE87C041E06DE288E992E00E9494
:100E7000900322273327A901221933094409550970
:100E800019A28E010F5D1F4FCA01B901A50194017E
:100E90000E94D007605DF80162938F012115310532
:100EA0004105510589F70115110561F001900020F8
:100EB000E9F73197AF01401B510BB80188E992E087
:100EC0000E94020268EC70E080E090E00E94D00195
:100ED000E114F10409F495CF0E946C02882309F40F
:100EE00090CF0E9400008DCF0F3F110511F461E0FB
:100EF000ADCFF6018491833019F140F48130B1F027
:100F00008230C9F00038110594F79FCF873011F176
:100F1000883041F18430B1F7809180008062809305
:100F2000800010938B0000938A0093CF84B5806873
:100F300084BD07BD8ECF84B5806284BD08BD89CFD6
:100F400080918000806880938000109389000093D6
:100F500088007FCF8091B00080688093B0000093BC
:100F6000B30077CF8091B00080628093B00000938F
:100F7000B4006FCFA201910119A28E010F5D1F4F26
:100F8000CA01B901A50194010E94D007605DF80172
:100F900062938F01211531054105510589F783CFF2
:100FA000A1E21A2EAA1BBB1BFD010DC0AA1FBB1F6D
:100FB000EE1FFF1FA217B307E407F50720F0A21BDF
:100FC000B30BE40BF50B661F771F881F991F1A944C
:100FD00069F760957095809590959B01AC01BD0176
:100FE000CF010895EE0FFF1F0590F491E02D0994B5
:040FF000F894FFCFA3
:100FF40000000000300103017403D900FC00E90083
:10100400DA0000000000A20202022F02EF026002D6
:101014003E02520200000000130402027403730330
:00000001FF
