:100000000C94C2000C94EA000C94EA000C94EA00F0
:100010000C94EA000C94EA000C94EA000C94EA00B8
:100020000C94EA000C94EA000C9489030C94F803F5
:100030000C94EA000C94EA000C94EA000C94EA0098
:100040000C94EA000C94EA000C94EA000C94EA0088
:100050000C94EA000C94EA000C94EA000C943F0320
:100060000C94EA000C94EA000C94EA000C94EA0068
:100070000C94EA000C94EA000C94EA000C94EA0058
:100080000C94EA000C94EA000C94EA000C94EA0048
:100090000C94EA000C94EA000C94EA000C94EA0038
:1000A0000C94EA000C94EA000C94EA0000000000B2
:1000B000250028002B002E00310000000000240045
:1000C00027002A002D003000040404040403040562
:1000D00002020202040302020202060606060606E5
:1000E00004040202020404040802011040804010CB
:1000F000204080408008020401804020100201104E
:10010000801020404020070605040100080A0B0C5F
:100110000D09080B0002020201000904000001029F
:10012000020000052400100105240101010424023D
:10013000060524060001070581031000400904019B
:1001400000020A00000007050202400000070583C4
:10015000024000000403090412010002EF02014002
:100160004123418000010102030141726475696EFF
:100170006F204C4C430041726475696E6F20597555
:100180006E00740711241FBECFEFDAE0DEBFCDBFD3
:1001900011E0A0E0B1E0E6E6FFE002C005900D92BC
:1001A000A832B107D9F721E0A8E2B1E001C01D9261
:1001B000A739B207E1F710E0C2ECD0E004C0219704
:1001C000FE010E94AB07C13CD107C9F70E942A0675
:1001D0000C94B1070C940000FC01809196018823D7
:1001E00011F13FB7F89482E08093E9002091F2008A
:1001F000822F90E01816190614F481E090E088230D
:1002000039F0289844E6409395014091F1004083ED
:10021000222339F02091F200211103C02BE6209314
:10022000E8003FBF08958FEF9FEF08952FB7F89430
:1002300083E08093E9009091E800892F807295FF18
:1002400004C09091F20080E4891B2FBF0895809133
:100250008D0181110DC082E08093890184E080933B
:100260008A0110928C0110928B0181E080938D01A4
:1002700089E891E008953FB7F894809185019091C5
:100280008601A0918701B091880126B5A89B05C081
:100290002F3F19F00196A11DB11D3FBFBA2FA92F05
:1002A000982F8827BC01CD01620F711D811D911D02
:1002B00042E0660F771F881F991F4A95D1F708956E
:1002C000CF92DF92EF92FF920E943B016B017C0183
:1002D0000E943B016C197D098E099F09683E73409D
:1002E00081059105A8F3FF90EF90DF90CF900895DE
:1002F00040917A0150917B012091780130917901F0
:1003000042175307B4F49091E8009570E1F390918F
:10031000E80092FD19C08093F10080917A019091DC
:100320007B0101968F739927892B19F48EEF8093A7
:10033000E80080917A0190917B01019690937B0176
:1003400080937A0181E0089580E00895EF92FF9212
:100350000F931F93CF93DF93F82E192FE62E042FC0
:1003600081E0860F880F0E94780183E00E94780167
:10037000CF2DD12FEC0EFD2EF11CCE15DF05B9F0DF
:1003800007FF13C0FE0184910E947801182F80E0BE
:100390000E947801812321968111EFCFDF91CF91C7
:1003A0001F910F91FF90EF9008958881EDCF81E02C
:1003B000F5CFDF92EF92FF920F931F93CF93DF93CE
:1003C000D82E8A01EB017B01E40EF51ECE15DF0568
:1003D00059F0D7FE12C0FE0184910E947801219647
:1003E0008111F4CF0FEF1FEFC801DF91CF911F9163
:1003F0000F91FF90EF90DF9008958881EECF0F93DB
:100400001F93CF93DF931F92CDB7DEB782E089832E
:1004100042E450E062E171E080E80E94D9010E946C
:100420002701DC0112960D911C910115110589F02F
:10043000D801ED91FC910280F381E02DBE016F5F48
:100440007F4FC801099597FD04C0F801008511850B
:10045000ECCF89810F90DF91CF911F910F9108957B
:10046000615030F02091F100FC0120830196F8CF1B
:10047000289884E68093950108958F929F92AF9279
:10048000BF92CF92DF92EF92FF920F931F93CF9381
:10049000DF936C017B018A0180910B01882309F4B1
:1004A00058C080919601882309F453C080917E0141
:1004B00080FF05C08091E00082608093E000E80149
:1004C000B12C8AEFA82E93E0892E2AE3922E209752
:1004D00011F4BB20B9F10E941601811106C0AA9443
:1004E000AA20B9F10E946001F2CF8C171D0611F00D
:1004F0000CF08C2F9FB7F8948092E9002091E800CF
:1005000025FD02C09FBFE3CF282F30E0C21BD30BD5
:10051000F701815020F041914093F100FACFE20EB3
:10052000F31EBB2021F09092E800B12CEBCF80911C
:10053000E80085FDE7CF9092E800BB24B3942097B4
:1005400009F3F3CF5D9884E680937F0110161106BE
:100550003CF081E090E0F6019383828310E000E0BC
:10056000C801DF91CF911F910F91FF90EF90DF9025
:10057000CF90BF90AF909F908F900895CF93DF93CF
:100580001F92CDB7DEB76983DC01ED91FC9102804B
:10059000F381E02D41E050E0BE016F5F7F4F099590
:1005A0000F90DF91CF91089583E08093E9008091CF
:1005B000F200882319F08AE38093E80008950E94EE
:1005C000160190E00895CF93DF931F92CDB7DEB769
:1005D000FC018485958597FD08C02FEF3FEF358797
:1005E00024870F90DF91CF910895CE0101960E944C
:1005F000EC00019719F4898190E0F3CF8FEF9FEF22
:10060000F0CF0F931F93CF93DF931F92CDB7DEB739
:100610008C01FC018485958597FF0BC0CE01019666
:100620000E94EC00019771F4898190E0F8019587B0
:100630008487F801848595850F90DF91CF911F9174
:100640000F9108958FEF9FEFF1CFFC018485958581
:1006500097FD0BC09FB7F89482E08093E9008091EA
:10066000F2009FBF90E0019608959FB7F89482E052
:100670008093E9008091F2009FBF90E008951F925F
:100680000F920FB60F9211242F933F938F939F9346
:10069000AF93BF938091810190918201A0918301DA
:1006A000B09184013091800123E0230F2D3758F55C
:1006B0000196A11DB11D209380018093810190932B
:1006C0008201A0938301B093840180918501909170
:1006D0008601A0918701B09188010196A11DB11DED
:1006E0008093850190938601A0938701B093880140
:1006F000BF91AF919F918F913F912F910F900FBE1E
:100700000F901F90189526E8230F0296A11DB11D8A
:10071000D2CF1F920F920FB60F9211248F939F93F7
:100720008091E1009091E100937F9093E10083FF3D
:100730000FC01092E90091E09093EB001092EC0052
:1007400092E39093ED001092960198E09093F00060
:1007500082FF22C093E09093E9009091F2009923E8
:1007600019F09AE39093E80090917F01992341F06A
:1007700090917F01915090937F01911101C05D9AFA
:1007800090919501992341F090919501915090930A
:100790009501911101C0289A84FF18C08091E20050
:1007A0008E7E81608093E2008091E1008F7E809355
:1007B000E10080917E018E7E806180937E019F9119
:1007C0008F910F900FBE0F901F90189580FFF7CF5D
:1007D0008091E2008E7E80618093E2008091E10052
:1007E0008E7E8093E10080917E018E7E8160E5CFD8
:1007F0001F920F920FB60F921124CF92DF92EF92B9
:10080000FF920F931F932F933F934F935F936F9399
:100810007F938F939F93AF93BF93EF93FF93CF9368
:10082000DF93CDB7DEB76C97DEBFCDBF1092E90086
:100830008091E80083FF25C068E0CE0145960E94C4
:10084000300282EF8093E8008D8987FF39C0909154
:10085000E80090FFFCCF982F907609F034C19E8974
:100860004F89588D2F89F88C911131C0803861F5EE
:1008700080917D018093F1001092F1008EEF8093C2
:10088000E8006C960FB6F894DEBF0FBECDBFDF91C7
:10089000CF91FF91EF91BF91AF919F918F917F91F8
:1008A0006F915F914F913F912F911F910F91FF9009
:1008B000EF90DF90CF900F900FBE0F901F90189584
:1008C0009EEF9093E800C7CF1092F100D5CF913002
:1008D00059F48111D3CF4130510581F680917D01CA
:1008E0008D7F80937D01CACF933049F48111C6CFAB
:1008F0004130510519F680917D018260F2CF95302B
:1009000041F48091E80080FFFCCF20682093E30051
:10091000B5CF963009F0A9C00B8D1C8D22E0109246
:10092000E90010927B0110927A01F2122EC010920F
:100930007901109278010E94FF011F8299E099834A
:10094000FA8291E09E8390EA98879AEF99872091A6
:100950007A0130917B01275F3F4F3C832B838D834E
:100960001092E90010927B0110927A0110937901A4
:100970000093780149E050E0BE016F5F7F4F80E057
:100980000E94D9010E94FF0179CF10937901009351
:1009900078010E942701DC0112960D911C9101152E
:1009A000110509F451C1D801ED91FC910480F58144
:1009B000E02DBE016B5E7F4FC8010995009709F0DD
:1009C0003EC1F80100851185EACFF3E0FF120EC0A9
:1009D0008F89882309F440C0823061F440E86BE0DD
:1009E00086E791E00E94A601811148CF81E28093C1
:1009F000EB0047CF813029F440E86BE08AE691E0D4
:100A0000F1CF833099F70E942701DC011296ED9017
:100A1000FC908E010F5F1F4F6801E114F10479F023
:100A2000D701ED91FC910680F781E02DB801C70157
:100A30000995080F111DF701E084F184EECFD8016C
:100A40001C92F60101900020E9F73197BF016C1963
:100A50007D0940E0C601C6CF64E571E0FB01449129
:100A600050E080E80E94D90109CF973009F4BECF49
:100A7000983021F481E08093F10000CF993009F0A3
:100A8000FDCE837009F0B2CFEFE1F1E081E031E01B
:100A900096E32191222371F08093E9003093EB00DB
:100AA000DF0111972C912093EC009093ED008F5F64
:100AB000873079F78EE78093EA001092EA008F89F9
:100AC00080939601DBCE8B8D9C8D1092E900109265
:100AD0007B0110927A019093790180937801898D3E
:100AE000811192C08E899D89913A49F4813209F031
:100AF0007DCF47E050E064E071E080E0B3CF913219
:100B000009F074CF833269F48F89988DB0E0A0E04A
:100B10008093000190930101A0930201B09303011F
:100B2000ADCE803269F48091E80082FFFCCF67E0AF
:100B300084E091E00E9430028BEF8093E8009ECE2B
:100B4000823209F09BCE8F8980930B01EEEFFFE795
:100B5000859194918B3F9C4D51F1E0E0F8E08091BC
:100B6000040190910501A0910601B0910701803B1D
:100B70009440A105B105F1F480910B0180FD1AC0EC
:100B8000EE3F8AE0F80789F587E797E7918380834E
:100B90008091600080937C0188E19BE00FB6F8941F
:100BA000A895809360000FBE9093600067CEEEEF33
:100BB000FAE0D5CF808191818737974709F05ECEE3
:100BC000A8958091600088618093600080917C018D
:100BD00080936000EE3F2AE0F20789F08091FE0AE0
:100BE0009091FF0A9183808349CE808191818737DC
:100BF000980751F29093FF0A8093FE0AC5CF109296
:100C0000FF0A1092FE0A3ACE0E942701DC011296DA
:100C10000D911C910115110509F4E8CED801ED9153
:100C2000FC910190F081E02DBE016B5E7F4FC80109
:100C30000995811123CEF80100851185EBCF181697
:100C400019060CF41BCED2CEF1E0FF12BECE68E541
:100C500071E004CFCF93DF93CDB7DEB7A1970FB686
:100C6000F894DEBF0FBECDBF789484B5826084BD9A
:100C700084B5816084BD85B5826085BD85B58160A0
:100C800085BD80916E00816080936E00109281001E
:100C900080918100826080938100809181008160D9
:100CA000809381008091800081608093800080919A
:100CB0009100826080939100809191008160809387
:100CC0009100809190008160809390008091C1009C
:100CD00084608093C1008091C10082608093C100D4
:100CE0008091C10081608093C1008091C3008160C8
:100CF0008093C3008091C00082608093C000809187
:100D0000C20081608093C20080917A0084608093E9
:100D10007A0080917A00826080937A0080917A00D4
:100D2000816080937A0080917A00806880937A0055
:100D30001092960110927D0110927E018091D70051
:100D400081608093D70080EA8093D80089B5806164
:100D500089BD89B5826089BD09B400FEFDCF0E94BE
:100D600060018091D8008F7C80618093D800809151
:100D7000E000807F8093E0008091E1008E7E809390
:100D8000E1008DE08093E200559A209AE0EFF0E0D8
:100D90002491E1EDF0E08491882399F090E0880FB0
:100DA000991FFC01E654FF4FA591B491FC01E45555
:100DB000FF4F859194918FB7F894EC91E22BEC93CF
:100DC0008FBF8FEF9FEF909335018093340138E010
:100DD000E32E31E0F32E4AE0842E912CA12CB12C8D
:100DE00050E0C52E50E0D52EF701849120917B0074
:100DF000982F990F990F90722F7D922B90937B00D3
:100E00008770806480937C0080917A0080648093F6
:100E10007A0080917A0086FDFCCF909178008091D5
:100E2000790089279827892797FD039695958795B7
:100E3000959587952C01092E000C6608770897FF79
:100E40003DC06DE288E291E00E94BE022227332776
:100E5000A901241935094609570919A28E010F5D08
:100E60001F4FCA01B901A50194010E948907605D65
:100E7000F80162938F01211531054105510589F76C
:100E80000115110561F001900020E9F73197AF01DC
:100E9000401B510BB80188E291E00E943D0242E004
:100EA00050E065E271E088E291E00E943D02C114E9
:100EB000D10409F499CF0E94000096CFA3019201BA
:100EC00019A28E010F5D1F4FCA01B901A50194013E
:100ED0000E948907605DF80162938F012115310539
:100EE0004105510589F7CCCFE8E2F1E01382128287
:100EF00088EE93E0A0E0B0E084839583A683B78377
:100F000080E191E0918380838FEF9FEF95878487C5
:100F10000895A1E21A2EAA1BBB1BFD010DC0AA1F3A
:100F2000BB1FEE1FFF1FA217B307E407F50720F052
:100F3000A21BB30BE40BF50B661F771F881F991FCD
:100F40001A9469F760957095809590959B01AC0116
:100F5000BD01CF010895EE0FFF1F0590F491E02D24
:060F60000994F894FFCF94
:100F6600FFFFFFFF00E1000000000000000000009E
:100F7600BE023D02DF02D4022503E302010300C1E3
:080F860080810000000D0A004B
:00000001FF
