:100000000C9462000C948A000C948A000C948A0070
:100010000C948A000C948A000C948A000C948A0038
:100020000C948A000C948A000C948A000C948A0028
:100030000C948A000C948A000C948A000C948A0018
:100040000C9472040C948A000C948A000C948A001C
:100050000C948A000C948A000C948A000C948A00F8
:100060000C9453030C948A00000000002400270025
:100070002A000000000023002600290000000000E4
:10008000250028002B0004040404040404040202D4
:100090000202020203030303030301020408102007
:1000A0004080010204081020010204081020000012
:1000B0000008000201000003040700000000000027
:1000C0000000BC0411241FBECFEFD8E0DEBFCDBFBF
:1000D00011E0A0E0B1E0EEEDFCE002C005900D9271
:1000E000A433B107D9F722E0A4E3B1E001C01D9227
:1000F000AF30B207E1F710E0C2E6D0E004C02197CC
:10010000FE010E946706C136D107C9F70E94DC04D0
:100110000C946D060C94000085ED8093BC008091DA
:10012000BC0084FDFCCF1092D10108952091AB0159
:10013000260F3327331F21323105ECF42091D101F2
:10014000FC0190E080E0243069F082E00895A09105
:10015000AB012191AC0147575E4FA40FB52FB11DE4
:100160002C930196861798F38091AB01680F6093EA
:10017000AB0180E0089581E0089508950895089501
:10018000E091860180918501E81730F4F0E0EB59A9
:10019000FE4F808190E008958FEF9FEF089590913A
:1001A0008601809185012FEF3FEF981748F4E92FE2
:1001B000F0E0EB59FE4F208130E09F5F9093860185
:1001C000C90108958091850190918601891B990B41
:1001D0000895CF92DF92EF92FF920F931F93CF93E8
:1001E000DF937C01CB018A0120916401222389F0F5
:1001F000EB016B01C40ED51ECC15DD0569F06991CC
:10020000D701ED91FC910190F081E02DC701099596
:10021000F3CF642F0E949600C801DF91CF911F9108
:100220000F91FF90EF90DF90CF900895CF93DF93E1
:100230001F92CDB7DEB76983209164012223F9F0C4
:1002400020918701203258F021E030E0FC01338317
:10025000228390E080E00F90DF91CF91089580910C
:100260008801E82FF0E0EC5BFE4F998190838F5F6F
:10027000809388018093870181E090E0ECCF61E07A
:10028000CE0101960E949600F7CF833081F028F4CA
:10029000813099F08230A9F008958730A9F0883034
:1002A000C9F08430B1F4809180008F7D03C08091CB
:1002B00080008F7780938000089584B58F7784BD08
:1002C000089584B58F7DFBCF8091B0008F778093A8
:1002D000B00008958091B0008F7DF9CFCF93DF9368
:1002E000282F30E0F901E255FF4F8491F901E656DD
:1002F000FF4FD491F901EA57FF4FC491CC2389F005
:1003000081110E944501EC2FF0E0EE0FFF1FE45831
:10031000FF4FA591B4918FB7F894EC91DE2BDC934D
:100320008FBFDF91CF9108953FB7F894809140013E
:1003300090914101A0914201B091430126B5A89B43
:1003400005C02F3F19F00196A11DB11D3FBFBA2F67
:10035000A92F982F8827BC01CD01620F711D811D27
:10036000911D42E0660F771F881F991F4A95D1F7AC
:1003700008958F929F92AF92BF92CF92DF92EF92A9
:10038000FF924B015C010E9494016B017C010E9471
:1003900094016C197D098E099F09683E734081059F
:1003A0009105A8F321E0821A9108A108B10888EE0E
:1003B000C80E83E0D81EE11CF11C81149104A10435
:1003C000B10429F7FF90EF90DF90CF90BF90AF90EE
:1003D0009F908F900895AF92BF92CF92DF92EF924D
:1003E000FF920F931F93CF93DF936C017B018B01DF
:1003F000040F151FEB015E01AE18BF08C017D1072F
:1004000059F06991D601ED91FC910190F081E02DB8
:10041000C6010995892B79F7C501DF91CF911F910D
:100420000F91FF90EF90DF90CF90BF90AF90089525
:10043000CF93FC01C48121E020936401C093340177
:1004400010928801109287018385682B87EF91E0D5
:100450000E94160190918701913208F03FC080916F
:10046000D1018111FCCF82E08093D10181E08093A2
:10047000D3018FEF8093D0011092F5019093F40196
:10048000A4E4B1E0E4EDF1E080E098132FC0109215
:10049000F6018091F601CC0FC82BC093F601809134
:1004A000D201813039F51092D2018091F60180930A
:1004B000BB008091BC0083FDF8CF85EC8093BC002D
:1004C0008091D1018230E1F38091D0018F3F31F0F2
:1004D0008091D001803211F08091D001109288017A
:1004E0001092870110926401CF9108952D9121936C
:1004F0008F5FCBCF85EEE2CF089590E080E0089546
:100500000F931F93CF938C01C62F0E9418026C2F5C
:100510006460C8010E9418026C2F6B7FC8010E94A2
:10052000180283EC90E00197F1F7CF911F910F91A2
:1005300008950F931F93CF93DF938C01D62FC42F71
:10054000607F642B0E94800280E1D89FB00111245B
:100550006C2BC801DF91CF911F910F910C948002F9
:10056000CF93DF93CDB7DEB728970FB6F894DEBFF1
:100570000FBECDBF98E0E0E0F1E0DE011196019002
:100580000D929A95E1F790910B02981708F48FEF6E
:1005900090E0880F991F21E030E02C0F3D1F820F63
:1005A000931FFC016081606840E083E092E0289640
:1005B0000FB6F894DEBF0FBECDBFDF91CF910C9484
:1005C0009902CF93DF93823028F0909108029860CF
:1005D0009093080280930B0262E370E080E090E069
:1005E0000E94B90160910E0283E092E00E9418021D
:1005F00068EE73E080E090E00E94B90160E383E080
:1006000092E00E948002CBE4D6E4CE010197F1F79C
:1006100060E383E092E00E9480022197F1F760E3BB
:1006200083E092E00E94800283E592E00197F1F777
:1006300060E283E092E00E948002609108026062C2
:1006400040E083E092E00E94990284E080930902F6
:1006500040E06CE083E092E00E94990240E061E0BB
:1006600083E092E00E949902CBE3DFE1CE010197A3
:10067000F1F782E080930A0240E066E083E092E0D6
:100680000E94990240E062E083E092E00E949902B9
:100690002197F1F7DF91CF91089541E00E949902EF
:1006A00081E090E008951F920F920FB60F921124EF
:1006B0002F933F934F935F936F937F938F939F936A
:1006C000AF93BF93EF93FF938091B900887F8036FB
:1006D00009F44AC0F0F5883209F4A7C018F5803152
:1006E00009F49BC0B8F4882309F4F9C0883009F4F0
:1006F00094C0FF91EF91BF91AF919F918F917F91A6
:100700006F915F914F913F912F910F900FBE0F907E
:100710001F901895883109F488C0803251F7809372
:10072000D00114C0803409F49DC040F48033B9F383
:100730008833F9F68093D00185ECB0C0803509F498
:1007400085C0883509F496C0883499F60E948C00DB
:10075000D0CF883909F48CC038F5883729F050F4A7
:10076000883611F0803729F683E08093D10110920A
:10077000CF0157C0883809F47BC0803919F0803820
:1007800009F0B7CF8091CF01803208F071C0E091BD
:10079000CF0181E08E0F8093CF018091BB00F0E00C
:1007A000E155FE4F80833DC0803B39F0E0F4803A54
:1007B00009F479C0883A09F09CCF84E08093D10194
:1007C0001092AC011092AB01E091A901F091AA0145
:1007D00009958091AB0181110FC081E08093AB013D
:1007E0001092890109C0803C09F4A6CF883C09F425
:1007F000A3CF883B09F07DCFE091AC0181E08E0F63
:100800008093AC01F0E0E757FE4F80818093BB00FE
:100810009091AC018091AB0129C08091F601809349
:10082000BB0085EC8093BC0064CF9091F501809172
:10083000F401981758F5E091F50181E08E0F80934F
:10084000F501F0E0EC52FE4F8081E9CFE091F50137
:1008500081E08E0F8093F5018091BB00F0E0EC52B7
:10086000FE4F80839091F5018091F4019817C8F2B2
:1008700085E8D8CFE091F50181E08E0F8093F501F6
:100880008091BB00F0E0EC52FE4F80838091D30159
:1008900081115CCF81E08093D20184EA8093BC0017
:1008A0001092D10126CF85EC8093BC001092D1012B
:1008B0008091CF01803230F4E091CF01F0E0E1553A
:1008C000FE4F10826091CF0170E0E091AD01F09198
:1008D000AE018FEA91E009951092CF010ACF1092F4
:1008E000D00134CF1F920F920FB60F9211242F9385
:1008F0003F938F939F93AF93BF9380913C019091CF
:100900003D01A0913E01B0913F0130913B0123E0B8
:10091000230F2D3758F50196A11DB11D20933B01E2
:1009200080933C0190933D01A0933E01B0933F0121
:100930008091400190914101A0914201B091430109
:100940000196A11DB11D8093400190934101A09398
:100950004201B0934301BF91AF919F918F913F911D
:100960002F910F900FBE0F901F90189526E8230F20
:100970000296A11DB11DD2CFE7EFF1E013821282E2
:1009800088EE93E0A0E0B0E084839583A683B783EC
:100990008CE091E091838083E3E0F2E013821282A5
:1009A0008EE191E09183808387E2848380E1818777
:1009B00082E0828713860895CF93DF93CDB7DEB7A9
:1009C000A1970FB6F894DEBF0FBECDBF789484B563
:1009D000826084BD84B5816084BD85B5826085BD3B
:1009E00085B5816085BD80916E00816080936E00C9
:1009F00010928100809181008260809381008091BB
:100A0000810081608093810080918000816080936B
:100A100080008091B10084608093B1008091B0002B
:100A200081608093B00080917A00846080937A0026
:100A300080917A00826080937A0080917A00816050
:100A400080937A0080917A00806880937A00109277
:100A5000C10082E00E94E10210928601109285019D
:100A600010928801109287011092D10181E0809349
:100A7000D3011092D20182E10E946E0183E10E94B3
:100A80006E018091B9008E7F8093B9008091B9008A
:100A90008D7F8093B90088E48093B80085E48093CB
:100AA000BC008DEB90E09093AA018093A9018EEB9E
:100AB00090E09093AE018093AD0110920802809176
:100AC0000D020E94E10218E010930E0260E083E044
:100AD00092E00E94180210930E0260E083E092E020
:100AE0000E94180280E00E94B0024CE050E066E2F2
:100AF00071E083E092E00E94EB015CE9852E50E01A
:100B0000952EF4012491E8E8F0E084918823C9F05F
:100B100090E0880F991FFC01E859FF4FA591B4910F
:100B2000FC01E458FF4F459154913FB7F8949C91D4
:100B3000822F809598239C93FA019081892380834A
:100B40003FBF90EB292E90E0392E2AE0422E512C07
:100B5000612C712CAA24A394B12CF1018491F4018D
:100B60001491E8E8F0E0049101114EC010923A01AE
:100B70001092390190E080E0909338018093370122
:100B800081E00E94B002C0903501D09036010D2C5A
:100B9000000CEE08FF08F7FE62C041E06DE283E062
:100BA00092E00E94990222273327A9012C193D09BE
:100BB0004E095F0919A28E010F5D1F4FCA01B901CD
:100BC000A30192010E944506605DF80162938F01C6
:100BD000211531054105510589F70115110561F010
:100BE00001900020E9F73197AF01401B510BB8018C
:100BF00083E092E00E94EB0180E090E0892B09F411
:100C0000ACCF0E940000A9CF81110E944501E02FC6
:100C1000F0E0EE0FFF1FEE58FF4FA591B4918C91BD
:100C2000182309F4A3CF8091350190913601B09239
:100C30003A01A09239012091370130913801232BDC
:100C400059F4019690933601809335016CE271E07E
:100C500080E090E00E94B90181E090E08DCFA70193
:100C6000960119A28E010F5D1F4FCA01B901A301A0
:100C700092010E944506605DF80162938F01211583
:100C800031054105510589F7A8CFA1E21A2EAA1B0B
:100C9000BB1BFD010DC0AA1FBB1FEE1FFF1FA2172C
:100CA000B307E407F50720F0A21BB30BE40BF50B29
:100CB000661F771F881F991F1A9469F760957095B2
:100CC000809590959B01AC01BD01CF010895EE0F79
:0E0CD000FF1F0590F491E02D0994F894FFCFDA
:100CDE000000400014005400000000001601E9005E
:100CEE007D02BF00E200CF00C000000000004D03F7
:100CFE00EB017D027C0248454C4C4F20574F524C25
:040D0E00442100007C
:00000001FF
